{
  "contractName": "BuddhaToken",
  "abi": [
    {
      "inputs": [
        {
          "internalType": "address",
          "name": "_liquidityWallet",
          "type": "address"
        },
        {
          "internalType": "address",
          "name": "_charityWallet",
          "type": "address"
        },
        {
          "internalType": "address",
          "name": "_liquidityManager",
          "type": "address"
        },
        {
          "internalType": "address",
          "name": "_charityManager",
          "type": "address"
        }
      ],
      "stateMutability": "nonpayable",
      "type": "constructor"
    },
    {
      "inputs": [
        {
          "internalType": "address",
          "name": "spender",
          "type": "address"
        },
        {
          "internalType": "uint256",
          "name": "allowance",
          "type": "uint256"
        },
        {
          "internalType": "uint256",
          "name": "needed",
          "type": "uint256"
        }
      ],
      "name": "ERC20InsufficientAllowance",
      "type": "error"
    },
    {
      "inputs": [
        {
          "internalType": "address",
          "name": "sender",
          "type": "address"
        },
        {
          "internalType": "uint256",
          "name": "balance",
          "type": "uint256"
        },
        {
          "internalType": "uint256",
          "name": "needed",
          "type": "uint256"
        }
      ],
      "name": "ERC20InsufficientBalance",
      "type": "error"
    },
    {
      "inputs": [
        {
          "internalType": "address",
          "name": "approver",
          "type": "address"
        }
      ],
      "name": "ERC20InvalidApprover",
      "type": "error"
    },
    {
      "inputs": [
        {
          "internalType": "address",
          "name": "receiver",
          "type": "address"
        }
      ],
      "name": "ERC20InvalidReceiver",
      "type": "error"
    },
    {
      "inputs": [
        {
          "internalType": "address",
          "name": "sender",
          "type": "address"
        }
      ],
      "name": "ERC20InvalidSender",
      "type": "error"
    },
    {
      "inputs": [
        {
          "internalType": "address",
          "name": "spender",
          "type": "address"
        }
      ],
      "name": "ERC20InvalidSpender",
      "type": "error"
    },
    {
      "inputs": [
        {
          "internalType": "address",
          "name": "owner",
          "type": "address"
        }
      ],
      "name": "OwnableInvalidOwner",
      "type": "error"
    },
    {
      "inputs": [
        {
          "internalType": "address",
          "name": "account",
          "type": "address"
        }
      ],
      "name": "OwnableUnauthorizedAccount",
      "type": "error"
    },
    {
      "anonymous": false,
      "inputs": [
        {
          "indexed": true,
          "internalType": "address",
          "name": "owner",
          "type": "address"
        },
        {
          "indexed": true,
          "internalType": "address",
          "name": "spender",
          "type": "address"
        },
        {
          "indexed": false,
          "internalType": "uint256",
          "name": "value",
          "type": "uint256"
        }
      ],
      "name": "Approval",
      "type": "event"
    },
    {
      "anonymous": false,
      "inputs": [
        {
          "indexed": true,
          "internalType": "address",
          "name": "previousOwner",
          "type": "address"
        },
        {
          "indexed": true,
          "internalType": "address",
          "name": "newOwner",
          "type": "address"
        }
      ],
      "name": "OwnershipTransferred",
      "type": "event"
    },
    {
      "anonymous": false,
      "inputs": [
        {
          "indexed": true,
          "internalType": "address",
          "name": "from",
          "type": "address"
        },
        {
          "indexed": true,
          "internalType": "address",
          "name": "to",
          "type": "address"
        },
        {
          "indexed": false,
          "internalType": "uint256",
          "name": "value",
          "type": "uint256"
        }
      ],
      "name": "Transfer",
      "type": "event"
    },
    {
      "inputs": [
        {
          "internalType": "address",
          "name": "owner",
          "type": "address"
        },
        {
          "internalType": "address",
          "name": "spender",
          "type": "address"
        }
      ],
      "name": "allowance",
      "outputs": [
        {
          "internalType": "uint256",
          "name": "",
          "type": "uint256"
        }
      ],
      "stateMutability": "view",
      "type": "function",
      "constant": true
    },
    {
      "inputs": [
        {
          "internalType": "address",
          "name": "spender",
          "type": "address"
        },
        {
          "internalType": "uint256",
          "name": "value",
          "type": "uint256"
        }
      ],
      "name": "approve",
      "outputs": [
        {
          "internalType": "bool",
          "name": "",
          "type": "bool"
        }
      ],
      "stateMutability": "nonpayable",
      "type": "function"
    },
    {
      "inputs": [
        {
          "internalType": "address",
          "name": "account",
          "type": "address"
        }
      ],
      "name": "balanceOf",
      "outputs": [
        {
          "internalType": "uint256",
          "name": "",
          "type": "uint256"
        }
      ],
      "stateMutability": "view",
      "type": "function",
      "constant": true
    },
    {
      "inputs": [],
      "name": "burnRate",
      "outputs": [
        {
          "internalType": "uint256",
          "name": "",
          "type": "uint256"
        }
      ],
      "stateMutability": "view",
      "type": "function",
      "constant": true
    },
    {
      "inputs": [],
      "name": "charityManager",
      "outputs": [
        {
          "internalType": "address",
          "name": "",
          "type": "address"
        }
      ],
      "stateMutability": "view",
      "type": "function",
      "constant": true
    },
    {
      "inputs": [],
      "name": "charityRate",
      "outputs": [
        {
          "internalType": "uint256",
          "name": "",
          "type": "uint256"
        }
      ],
      "stateMutability": "view",
      "type": "function",
      "constant": true
    },
    {
      "inputs": [],
      "name": "charityWallet",
      "outputs": [
        {
          "internalType": "address",
          "name": "",
          "type": "address"
        }
      ],
      "stateMutability": "view",
      "type": "function",
      "constant": true
    },
    {
      "inputs": [],
      "name": "decimals",
      "outputs": [
        {
          "internalType": "uint8",
          "name": "",
          "type": "uint8"
        }
      ],
      "stateMutability": "view",
      "type": "function",
      "constant": true
    },
    {
      "inputs": [],
      "name": "liquidityManager",
      "outputs": [
        {
          "internalType": "address",
          "name": "",
          "type": "address"
        }
      ],
      "stateMutability": "view",
      "type": "function",
      "constant": true
    },
    {
      "inputs": [],
      "name": "liquidityRate",
      "outputs": [
        {
          "internalType": "uint256",
          "name": "",
          "type": "uint256"
        }
      ],
      "stateMutability": "view",
      "type": "function",
      "constant": true
    },
    {
      "inputs": [],
      "name": "liquidityWallet",
      "outputs": [
        {
          "internalType": "address",
          "name": "",
          "type": "address"
        }
      ],
      "stateMutability": "view",
      "type": "function",
      "constant": true
    },
    {
      "inputs": [],
      "name": "name",
      "outputs": [
        {
          "internalType": "string",
          "name": "",
          "type": "string"
        }
      ],
      "stateMutability": "view",
      "type": "function",
      "constant": true
    },
    {
      "inputs": [],
      "name": "owner",
      "outputs": [
        {
          "internalType": "address",
          "name": "",
          "type": "address"
        }
      ],
      "stateMutability": "view",
      "type": "function",
      "constant": true
    },
    {
      "inputs": [],
      "name": "renounceOwnership",
      "outputs": [],
      "stateMutability": "nonpayable",
      "type": "function"
    },
    {
      "inputs": [],
      "name": "rewardRate",
      "outputs": [
        {
          "internalType": "uint256",
          "name": "",
          "type": "uint256"
        }
      ],
      "stateMutability": "view",
      "type": "function",
      "constant": true
    },
    {
      "inputs": [],
      "name": "symbol",
      "outputs": [
        {
          "internalType": "string",
          "name": "",
          "type": "string"
        }
      ],
      "stateMutability": "view",
      "type": "function",
      "constant": true
    },
    {
      "inputs": [],
      "name": "totalSupply",
      "outputs": [
        {
          "internalType": "uint256",
          "name": "",
          "type": "uint256"
        }
      ],
      "stateMutability": "view",
      "type": "function",
      "constant": true
    },
    {
      "inputs": [
        {
          "internalType": "address",
          "name": "to",
          "type": "address"
        },
        {
          "internalType": "uint256",
          "name": "value",
          "type": "uint256"
        }
      ],
      "name": "transfer",
      "outputs": [
        {
          "internalType": "bool",
          "name": "",
          "type": "bool"
        }
      ],
      "stateMutability": "nonpayable",
      "type": "function"
    },
    {
      "inputs": [
        {
          "internalType": "address",
          "name": "from",
          "type": "address"
        },
        {
          "internalType": "address",
          "name": "to",
          "type": "address"
        },
        {
          "internalType": "uint256",
          "name": "value",
          "type": "uint256"
        }
      ],
      "name": "transferFrom",
      "outputs": [
        {
          "internalType": "bool",
          "name": "",
          "type": "bool"
        }
      ],
      "stateMutability": "nonpayable",
      "type": "function"
    },
    {
      "inputs": [
        {
          "internalType": "address",
          "name": "newOwner",
          "type": "address"
        }
      ],
      "name": "transferOwnership",
      "outputs": [],
      "stateMutability": "nonpayable",
      "type": "function"
    },
    {
      "inputs": [
        {
          "internalType": "uint256",
          "name": "newBurnRate",
          "type": "uint256"
        },
        {
          "internalType": "uint256",
          "name": "newRewardRate",
          "type": "uint256"
        },
        {
          "internalType": "uint256",
          "name": "newLiquidityRate",
          "type": "uint256"
        },
        {
          "internalType": "uint256",
          "name": "newCharityRate",
          "type": "uint256"
        }
      ],
      "name": "updateRates",
      "outputs": [],
      "stateMutability": "nonpayable",
      "type": "function"
    }
  ],
  "bytecode": "0x6080604052600260065560026007556001600855600160095534801562000024575f80fd5b50604051620021403803806200214083398181016040528101906200004a91906200068b565b336040518060400160405280600c81526020017f42756464686120546f6b656e00000000000000000000000000000000000000008152506040518060400160405280600681526020017f42554444484100000000000000000000000000000000000000000000000000008152508160039081620000c891906200095e565b508060049081620000da91906200095e565b5050505f73ffffffffffffffffffffffffffffffffffffffff168173ffffffffffffffffffffffffffffffffffffffff160362000150575f6040517f1e4fbdf700000000000000000000000000000000000000000000000000000000815260040162000147919062000a53565b60405180910390fd5b6200016181620002ad60201b60201c565b50620001a333620001776200037060201b60201c565b600a62000185919062000bf7565b64012a05f20062000197919062000c47565b6200037860201b60201c565b83600a5f6101000a81548173ffffffffffffffffffffffffffffffffffffffff021916908373ffffffffffffffffffffffffffffffffffffffff16021790555082600b5f6101000a81548173ffffffffffffffffffffffffffffffffffffffff021916908373ffffffffffffffffffffffffffffffffffffffff16021790555081600c5f6101000a81548173ffffffffffffffffffffffffffffffffffffffff021916908373ffffffffffffffffffffffffffffffffffffffff16021790555080600d5f6101000a81548173ffffffffffffffffffffffffffffffffffffffff021916908373ffffffffffffffffffffffffffffffffffffffff1602179055505050505062000d32565b5f60055f9054906101000a900473ffffffffffffffffffffffffffffffffffffffff1690508160055f6101000a81548173ffffffffffffffffffffffffffffffffffffffff021916908373ffffffffffffffffffffffffffffffffffffffff1602179055508173ffffffffffffffffffffffffffffffffffffffff168173ffffffffffffffffffffffffffffffffffffffff167f8be0079c531659141344cd1fd0a4f28419497f9722a3daafe3b4186f6b6457e060405160405180910390a35050565b5f6012905090565b5f73ffffffffffffffffffffffffffffffffffffffff168273ffffffffffffffffffffffffffffffffffffffff1603620003eb575f6040517fec442f05000000000000000000000000000000000000000000000000000000008152600401620003e2919062000a53565b60405180910390fd5b620003fe5f83836200040260201b60201c565b5050565b5f73ffffffffffffffffffffffffffffffffffffffff168373ffffffffffffffffffffffffffffffffffffffff160362000456578060025f82825462000449919062000c91565b9250508190555062000527565b5f805f8573ffffffffffffffffffffffffffffffffffffffff1673ffffffffffffffffffffffffffffffffffffffff1681526020019081526020015f2054905081811015620004e2578381836040517fe450d38c000000000000000000000000000000000000000000000000000000008152600401620004d99392919062000cdc565b60405180910390fd5b8181035f808673ffffffffffffffffffffffffffffffffffffffff1673ffffffffffffffffffffffffffffffffffffffff1681526020019081526020015f2081905550505b5f73ffffffffffffffffffffffffffffffffffffffff168273ffffffffffffffffffffffffffffffffffffffff160362000570578060025f8282540392505081905550620005ba565b805f808473ffffffffffffffffffffffffffffffffffffffff1673ffffffffffffffffffffffffffffffffffffffff1681526020019081526020015f205f82825401925050819055505b8173ffffffffffffffffffffffffffffffffffffffff168373ffffffffffffffffffffffffffffffffffffffff167fddf252ad1be2c89b69c2b068fc378daa952ba7f163c4a11628f55a4df523b3ef8360405162000619919062000d17565b60405180910390a3505050565b5f80fd5b5f73ffffffffffffffffffffffffffffffffffffffff82169050919050565b5f62000655826200062a565b9050919050565b620006678162000649565b811462000672575f80fd5b50565b5f8151905062000685816200065c565b92915050565b5f805f8060808587031215620006a657620006a562000626565b5b5f620006b58782880162000675565b9450506020620006c88782880162000675565b9350506040620006db8782880162000675565b9250506060620006ee8782880162000675565b91505092959194509250565b5f81519050919050565b7f4e487b71000000000000000000000000000000000000000000000000000000005f52604160045260245ffd5b7f4e487b71000000000000000000000000000000000000000000000000000000005f52602260045260245ffd5b5f60028204905060018216806200077657607f821691505b6020821081036200078c576200078b62000731565b5b50919050565b5f819050815f5260205f209050919050565b5f6020601f8301049050919050565b5f82821b905092915050565b5f60088302620007f07fffffffffffffffffffffffffffffffffffffffffffffffffffffffffffffffff82620007b3565b620007fc8683620007b3565b95508019841693508086168417925050509392505050565b5f819050919050565b5f819050919050565b5f62000846620008406200083a8462000814565b6200081d565b62000814565b9050919050565b5f819050919050565b620008618362000826565b6200087962000870826200084d565b848454620007bf565b825550505050565b5f90565b6200088f62000881565b6200089c81848462000856565b505050565b5b81811015620008c357620008b75f8262000885565b600181019050620008a2565b5050565b601f8211156200091257620008dc8162000792565b620008e784620007a4565b81016020851015620008f7578190505b6200090f6200090685620007a4565b830182620008a1565b50505b505050565b5f82821c905092915050565b5f620009345f198460080262000917565b1980831691505092915050565b5f6200094e838362000923565b9150826002028217905092915050565b6200096982620006fa565b67ffffffffffffffff81111562000985576200098462000704565b5b6200099182546200075e565b6200099e828285620008c7565b5f60209050601f831160018114620009d4575f8415620009bf578287015190505b620009cb858262000941565b86555062000a3a565b601f198416620009e48662000792565b5f5b8281101562000a0d57848901518255600182019150602085019450602081019050620009e6565b8683101562000a2d578489015162000a29601f89168262000923565b8355505b6001600288020188555050505b505050505050565b62000a4d8162000649565b82525050565b5f60208201905062000a685f83018462000a42565b92915050565b7f4e487b71000000000000000000000000000000000000000000000000000000005f52601160045260245ffd5b5f8160011c9050919050565b5f808291508390505b600185111562000af85780860481111562000ad05762000acf62000a6e565b5b600185161562000ae05780820291505b808102905062000af08562000a9b565b945062000ab0565b94509492505050565b5f8262000b12576001905062000be4565b8162000b21575f905062000be4565b816001811462000b3a576002811462000b455762000b7b565b600191505062000be4565b60ff84111562000b5a5762000b5962000a6e565b5b8360020a91508482111562000b745762000b7362000a6e565b5b5062000be4565b5060208310610133831016604e8410600b841016171562000bb55782820a90508381111562000baf5762000bae62000a6e565b5b62000be4565b62000bc4848484600162000aa7565b9250905081840481111562000bde5762000bdd62000a6e565b5b81810290505b9392505050565b5f60ff82169050919050565b5f62000c038262000814565b915062000c108362000beb565b925062000c3f7fffffffffffffffffffffffffffffffffffffffffffffffffffffffffffffffff848462000b01565b905092915050565b5f62000c538262000814565b915062000c608362000814565b925082820262000c708162000814565b9150828204841483151762000c8a5762000c8962000a6e565b5b5092915050565b5f62000c9d8262000814565b915062000caa8362000814565b925082820190508082111562000cc55762000cc462000a6e565b5b92915050565b62000cd68162000814565b82525050565b5f60608201905062000cf15f83018662000a42565b62000d00602083018562000ccb565b62000d0f604083018462000ccb565b949350505050565b5f60208201905062000d2c5f83018462000ccb565b92915050565b6114008062000d405f395ff3fe608060405234801561000f575f80fd5b5060043610610135575f3560e01c806376c3960d116100b6578063a9059cbb1161007a578063a9059cbb1461031b578063bed998501461034b578063d469801614610369578063dd62ed3e14610387578063f2fde38b146103b7578063f42ef871146103d357610135565b806376c3960d146102855780637b0a47ee146102a35780637b208769146102c15780638da5cb5b146102df57806395d89b41146102fd57610135565b806333827438116100fd57806333827438146101f35780634b00ec6314610211578063548cbeb01461022d57806370a082311461024b578063715018a61461027b57610135565b806306fdde0314610139578063095ea7b31461015757806318160ddd1461018757806323b872dd146101a5578063313ce567146101d5575b5f80fd5b6101416103f1565b60405161014e9190610fad565b60405180910390f35b610171600480360381019061016c919061105e565b610481565b60405161017e91906110b6565b60405180910390f35b61018f6104a3565b60405161019c91906110de565b60405180910390f35b6101bf60048036038101906101ba91906110f7565b6104ac565b6040516101cc91906110b6565b60405180910390f35b6101dd6104da565b6040516101ea9190611162565b60405180910390f35b6101fb6104e2565b604051610208919061118a565b60405180910390f35b61022b600480360381019061022691906111a3565b610507565b005b610235610596565b60405161024291906110de565b60405180910390f35b61026560048036038101906102609190611207565b61059c565b60405161027291906110de565b60405180910390f35b6102836105e1565b005b61028d6105f4565b60405161029a91906110de565b60405180910390f35b6102ab6105fa565b6040516102b891906110de565b60405180910390f35b6102c9610600565b6040516102d6919061118a565b60405180910390f35b6102e7610625565b6040516102f4919061118a565b60405180910390f35b61030561064d565b6040516103129190610fad565b60405180910390f35b6103356004803603810190610330919061105e565b6106dd565b60405161034291906110b6565b60405180910390f35b6103536106ff565b60405161036091906110de565b60405180910390f35b610371610705565b60405161037e919061118a565b60405180910390f35b6103a1600480360381019061039c9190611232565b61072a565b6040516103ae91906110de565b60405180910390f35b6103d160048036038101906103cc9190611207565b6107ac565b005b6103db610830565b6040516103e8919061118a565b60405180910390f35b6060600380546104009061129d565b80601f016020809104026020016040519081016040528092919081815260200182805461042c9061129d565b80156104775780601f1061044e57610100808354040283529160200191610477565b820191905f5260205f20905b81548152906001019060200180831161045a57829003601f168201915b5050505050905090565b5f8061048b610855565b905061049881858561085c565b600191505092915050565b5f600254905090565b5f806104b6610855565b90506104c385828561086e565b6104ce858585610901565b60019150509392505050565b5f6012905090565b600c5f9054906101000a900473ffffffffffffffffffffffffffffffffffffffff1681565b61050f6109f1565b60648183858761051f91906112fa565b61052991906112fa565b61053391906112fa565b1115610574576040517f08c379a000000000000000000000000000000000000000000000000000000000815260040161056b90611377565b60405180910390fd5b8360068190555082600781905550816008819055508060098190555050505050565b60085481565b5f805f8373ffffffffffffffffffffffffffffffffffffffff1673ffffffffffffffffffffffffffffffffffffffff1681526020019081526020015f20549050919050565b6105e96109f1565b6105f25f610a78565b565b60095481565b60075481565b600b5f9054906101000a900473ffffffffffffffffffffffffffffffffffffffff1681565b5f60055f9054906101000a900473ffffffffffffffffffffffffffffffffffffffff16905090565b60606004805461065c9061129d565b80601f01602080910402602001604051908101604052809291908181526020018280546106889061129d565b80156106d35780601f106106aa576101008083540402835291602001916106d3565b820191905f5260205f20905b8154815290600101906020018083116106b657829003601f168201915b5050505050905090565b5f806106e7610855565b90506106f4818585610901565b600191505092915050565b60065481565b600a5f9054906101000a900473ffffffffffffffffffffffffffffffffffffffff1681565b5f60015f8473ffffffffffffffffffffffffffffffffffffffff1673ffffffffffffffffffffffffffffffffffffffff1681526020019081526020015f205f8373ffffffffffffffffffffffffffffffffffffffff1673ffffffffffffffffffffffffffffffffffffffff1681526020019081526020015f2054905092915050565b6107b46109f1565b5f73ffffffffffffffffffffffffffffffffffffffff168173ffffffffffffffffffffffffffffffffffffffff1603610824575f6040517f1e4fbdf700000000000000000000000000000000000000000000000000000000815260040161081b919061118a565b60405180910390fd5b61082d81610a78565b50565b600d5f9054906101000a900473ffffffffffffffffffffffffffffffffffffffff1681565b5f33905090565b6108698383836001610b3b565b505050565b5f610879848461072a565b90507fffffffffffffffffffffffffffffffffffffffffffffffffffffffffffffffff8110156108fb57818110156108ec578281836040517ffb8f41b20000000000000000000000000000000000000000000000000000000081526004016108e393929190611395565b60405180910390fd5b6108fa84848484035f610b3b565b5b50505050565b5f73ffffffffffffffffffffffffffffffffffffffff168373ffffffffffffffffffffffffffffffffffffffff1603610971575f6040517f96c6fd1e000000000000000000000000000000000000000000000000000000008152600401610968919061118a565b60405180910390fd5b5f73ffffffffffffffffffffffffffffffffffffffff168273ffffffffffffffffffffffffffffffffffffffff16036109e1575f6040517fec442f050000000000000000000000000000000000000000000000000000000081526004016109d8919061118a565b60405180910390fd5b6109ec838383610d0a565b505050565b6109f9610855565b73ffffffffffffffffffffffffffffffffffffffff16610a17610625565b73ffffffffffffffffffffffffffffffffffffffff1614610a7657610a3a610855565b6040517f118cdaa7000000000000000000000000000000000000000000000000000000008152600401610a6d919061118a565b60405180910390fd5b565b5f60055f9054906101000a900473ffffffffffffffffffffffffffffffffffffffff1690508160055f6101000a81548173ffffffffffffffffffffffffffffffffffffffff021916908373ffffffffffffffffffffffffffffffffffffffff1602179055508173ffffffffffffffffffffffffffffffffffffffff168173ffffffffffffffffffffffffffffffffffffffff167f8be0079c531659141344cd1fd0a4f28419497f9722a3daafe3b4186f6b6457e060405160405180910390a35050565b5f73ffffffffffffffffffffffffffffffffffffffff168473ffffffffffffffffffffffffffffffffffffffff1603610bab575f6040517fe602df05000000000000000000000000000000000000000000000000000000008152600401610ba2919061118a565b60405180910390fd5b5f73ffffffffffffffffffffffffffffffffffffffff168373ffffffffffffffffffffffffffffffffffffffff1603610c1b575f6040517f94280d62000000000000000000000000000000000000000000000000000000008152600401610c12919061118a565b60405180910390fd5b8160015f8673ffffffffffffffffffffffffffffffffffffffff1673ffffffffffffffffffffffffffffffffffffffff1681526020019081526020015f205f8573ffffffffffffffffffffffffffffffffffffffff1673ffffffffffffffffffffffffffffffffffffffff1681526020019081526020015f20819055508015610d04578273ffffffffffffffffffffffffffffffffffffffff168473ffffffffffffffffffffffffffffffffffffffff167f8c5be1e5ebec7d5bd14f71427d1e84f3dd0314c0f7b2291e5b200ac8c7c3b92584604051610cfb91906110de565b60405180910390a35b50505050565b5f73ffffffffffffffffffffffffffffffffffffffff168373ffffffffffffffffffffffffffffffffffffffff1603610d5a578060025f828254610d4e91906112fa565b92505081905550610e28565b5f805f8573ffffffffffffffffffffffffffffffffffffffff1673ffffffffffffffffffffffffffffffffffffffff1681526020019081526020015f2054905081811015610de3578381836040517fe450d38c000000000000000000000000000000000000000000000000000000008152600401610dda93929190611395565b60405180910390fd5b8181035f808673ffffffffffffffffffffffffffffffffffffffff1673ffffffffffffffffffffffffffffffffffffffff1681526020019081526020015f2081905550505b5f73ffffffffffffffffffffffffffffffffffffffff168273ffffffffffffffffffffffffffffffffffffffff1603610e6f578060025f8282540392505081905550610eb9565b805f808473ffffffffffffffffffffffffffffffffffffffff1673ffffffffffffffffffffffffffffffffffffffff1681526020019081526020015f205f82825401925050819055505b8173ffffffffffffffffffffffffffffffffffffffff168373ffffffffffffffffffffffffffffffffffffffff167fddf252ad1be2c89b69c2b068fc378daa952ba7f163c4a11628f55a4df523b3ef83604051610f1691906110de565b60405180910390a3505050565b5f81519050919050565b5f82825260208201905092915050565b5f5b83811015610f5a578082015181840152602081019050610f3f565b5f8484015250505050565b5f601f19601f8301169050919050565b5f610f7f82610f23565b610f898185610f2d565b9350610f99818560208601610f3d565b610fa281610f65565b840191505092915050565b5f6020820190508181035f830152610fc58184610f75565b905092915050565b5f80fd5b5f73ffffffffffffffffffffffffffffffffffffffff82169050919050565b5f610ffa82610fd1565b9050919050565b61100a81610ff0565b8114611014575f80fd5b50565b5f8135905061102581611001565b92915050565b5f819050919050565b61103d8161102b565b8114611047575f80fd5b50565b5f8135905061105881611034565b92915050565b5f806040838503121561107457611073610fcd565b5b5f61108185828601611017565b92505060206110928582860161104a565b9150509250929050565b5f8115159050919050565b6110b08161109c565b82525050565b5f6020820190506110c95f8301846110a7565b92915050565b6110d88161102b565b82525050565b5f6020820190506110f15f8301846110cf565b92915050565b5f805f6060848603121561110e5761110d610fcd565b5b5f61111b86828701611017565b935050602061112c86828701611017565b925050604061113d8682870161104a565b9150509250925092565b5f60ff82169050919050565b61115c81611147565b82525050565b5f6020820190506111755f830184611153565b92915050565b61118481610ff0565b82525050565b5f60208201905061119d5f83018461117b565b92915050565b5f805f80608085870312156111bb576111ba610fcd565b5b5f6111c88782880161104a565b94505060206111d98782880161104a565b93505060406111ea8782880161104a565b92505060606111fb8782880161104a565b91505092959194509250565b5f6020828403121561121c5761121b610fcd565b5b5f61122984828501611017565b91505092915050565b5f806040838503121561124857611247610fcd565b5b5f61125585828601611017565b925050602061126685828601611017565b9150509250929050565b7f4e487b71000000000000000000000000000000000000000000000000000000005f52602260045260245ffd5b5f60028204905060018216806112b457607f821691505b6020821081036112c7576112c6611270565b5b50919050565b7f4e487b71000000000000000000000000000000000000000000000000000000005f52601160045260245ffd5b5f6113048261102b565b915061130f8361102b565b9250828201905080821115611327576113266112cd565b5b92915050565b7f546f74616c2072617465206d757374206e6f74206578636565642031303025005f82015250565b5f611361601f83610f2d565b915061136c8261132d565b602082019050919050565b5f6020820190508181035f83015261138e81611355565b9050919050565b5f6060820190506113a85f83018661117b565b6113b560208301856110cf565b6113c260408301846110cf565b94935050505056fea2646970667358221220d8e5defb7f355a0212c15c965e494b69a8c77b1b48e480cca1c82005fa84f26664736f6c63430008140033",
  "immutableReferences": {},
  "source": "// SPDX-License-Identifier: MIT\r\npragma solidity ^0.8.20;\r\n\r\nimport \"@openzeppelin/contracts/token/ERC20/ERC20.sol\";\r\nimport \"@openzeppelin/contracts/access/Ownable.sol\";\r\n\r\ncontract BuddhaToken is ERC20, Ownable {\r\n    uint256 public burnRate = 2;\r\n    uint256 public rewardRate = 2;\r\n    uint256 public liquidityRate = 1;\r\n    uint256 public charityRate = 1;\r\n\r\n    address public liquidityWallet;\r\n    address public charityWallet;\r\n    address public liquidityManager;\r\n    address public charityManager;\r\n\r\n    constructor(\r\n        address _liquidityWallet,\r\n        address _charityWallet,\r\n        address _liquidityManager,\r\n        address _charityManager\r\n    ) ERC20(\"Buddha Token\", \"BUDDHA\") Ownable(msg.sender) {\r\n        _mint(msg.sender, 5000000000 * (10 ** decimals()));\r\n        liquidityWallet = _liquidityWallet;\r\n        charityWallet = _charityWallet;\r\n        liquidityManager = _liquidityManager;\r\n        charityManager = _charityManager;\r\n    }\r\n\r\n    modifier onlyLiquidityManager() {\r\n        require(msg.sender == liquidityManager, \"Only the Liquidity Manager is allowed\");\r\n        _;\r\n    }\r\n\r\n    modifier onlyCharityManager() {\r\n        require(msg.sender == charityManager, \"Only the Charity Manager is allowed\");\r\n        _;\r\n    }\r\n\r\n    function _beforeTokenTransfer(\r\n        address from,\r\n        address to,\r\n        uint256 amount\r\n    ) internal {\r\n        if (to == liquidityWallet) {\r\n            require(msg.sender == liquidityManager, \"Only the Liquidity Manager is allowed\");\r\n        } else if (to == charityWallet) {\r\n            require(msg.sender == charityManager, \"Only the Charity Manager is allowed\");\r\n        }\r\n    }\r\n\r\n    function updateRates(\r\n        uint256 newBurnRate,\r\n        uint256 newRewardRate,\r\n        uint256 newLiquidityRate,\r\n        uint256 newCharityRate\r\n    ) public onlyOwner {\r\n        require(newBurnRate + newRewardRate + newLiquidityRate + newCharityRate <= 100, \"Total rate must not exceed 100%\");\r\n        burnRate = newBurnRate;\r\n        rewardRate = newRewardRate;\r\n        liquidityRate = newLiquidityRate;\r\n        charityRate = newCharityRate;\r\n    }\r\n}\r\n",
  "sourcePath": "D:\\buddha_token\\contracts\\BuddhaToken.sol",
  "compiler": {
    "name": "solc",
    "version": "0.8.20+commit.a1b79de6.Emscripten.clang"
  },
  "schemaVersion": "3.4.16",
  "updatedAt": "2025-02-02T10:09:18.663Z",
  "networkType": "ethereum",
  "devdoc": {
    "errors": {
      "ERC20InsufficientAllowance(address,uint256,uint256)": [
        {
          "details": "Indicates a failure with the `spender`s `allowance`. Used in transfers.",
          "params": {
            "allowance": "Amount of tokens a `spender` is allowed to operate with.",
            "needed": "Minimum amount required to perform a transfer.",
            "spender": "Address that may be allowed to operate on tokens without being their owner."
          }
        }
      ],
      "ERC20InsufficientBalance(address,uint256,uint256)": [
        {
          "details": "Indicates an error related to the current `balance` of a `sender`. Used in transfers.",
          "params": {
            "balance": "Current balance for the interacting account.",
            "needed": "Minimum amount required to perform a transfer.",
            "sender": "Address whose tokens are being transferred."
          }
        }
      ],
      "ERC20InvalidApprover(address)": [
        {
          "details": "Indicates a failure with the `approver` of a token to be approved. Used in approvals.",
          "params": {
            "approver": "Address initiating an approval operation."
          }
        }
      ],
      "ERC20InvalidReceiver(address)": [
        {
          "details": "Indicates a failure with the token `receiver`. Used in transfers.",
          "params": {
            "receiver": "Address to which tokens are being transferred."
          }
        }
      ],
      "ERC20InvalidSender(address)": [
        {
          "details": "Indicates a failure with the token `sender`. Used in transfers.",
          "params": {
            "sender": "Address whose tokens are being transferred."
          }
        }
      ],
      "ERC20InvalidSpender(address)": [
        {
          "details": "Indicates a failure with the `spender` to be approved. Used in approvals.",
          "params": {
            "spender": "Address that may be allowed to operate on tokens without being their owner."
          }
        }
      ],
      "OwnableInvalidOwner(address)": [
        {
          "details": "The owner is not a valid owner account. (eg. `address(0)`)"
        }
      ],
      "OwnableUnauthorizedAccount(address)": [
        {
          "details": "The caller account is not authorized to perform an operation."
        }
      ]
    },
    "events": {
      "Approval(address,address,uint256)": {
        "details": "Emitted when the allowance of a `spender` for an `owner` is set by a call to {approve}. `value` is the new allowance."
      },
      "Transfer(address,address,uint256)": {
        "details": "Emitted when `value` tokens are moved from one account (`from`) to another (`to`). Note that `value` may be zero."
      }
    },
    "kind": "dev",
    "methods": {
      "allowance(address,address)": {
        "details": "See {IERC20-allowance}."
      },
      "approve(address,uint256)": {
        "details": "See {IERC20-approve}. NOTE: If `value` is the maximum `uint256`, the allowance is not updated on `transferFrom`. This is semantically equivalent to an infinite approval. Requirements: - `spender` cannot be the zero address."
      },
      "balanceOf(address)": {
        "details": "See {IERC20-balanceOf}."
      },
      "decimals()": {
        "details": "Returns the number of decimals used to get its user representation. For example, if `decimals` equals `2`, a balance of `505` tokens should be displayed to a user as `5.05` (`505 / 10 ** 2`). Tokens usually opt for a value of 18, imitating the relationship between Ether and Wei. This is the default value returned by this function, unless it's overridden. NOTE: This information is only used for _display_ purposes: it in no way affects any of the arithmetic of the contract, including {IERC20-balanceOf} and {IERC20-transfer}."
      },
      "name()": {
        "details": "Returns the name of the token."
      },
      "owner()": {
        "details": "Returns the address of the current owner."
      },
      "renounceOwnership()": {
        "details": "Leaves the contract without owner. It will not be possible to call `onlyOwner` functions. Can only be called by the current owner. NOTE: Renouncing ownership will leave the contract without an owner, thereby disabling any functionality that is only available to the owner."
      },
      "symbol()": {
        "details": "Returns the symbol of the token, usually a shorter version of the name."
      },
      "totalSupply()": {
        "details": "See {IERC20-totalSupply}."
      },
      "transfer(address,uint256)": {
        "details": "See {IERC20-transfer}. Requirements: - `to` cannot be the zero address. - the caller must have a balance of at least `value`."
      },
      "transferFrom(address,address,uint256)": {
        "details": "See {IERC20-transferFrom}. Skips emitting an {Approval} event indicating an allowance update. This is not required by the ERC. See {xref-ERC20-_approve-address-address-uint256-bool-}[_approve]. NOTE: Does not update the allowance if the current allowance is the maximum `uint256`. Requirements: - `from` and `to` cannot be the zero address. - `from` must have a balance of at least `value`. - the caller must have allowance for ``from``'s tokens of at least `value`."
      },
      "transferOwnership(address)": {
        "details": "Transfers ownership of the contract to a new account (`newOwner`). Can only be called by the current owner."
      }
    },
    "version": 1
  },
  "userdoc": {
    "kind": "user",
    "methods": {},
    "version": 1
  }
}